{
  "address": "0xA50dFD1c62DbdB69a64465F896691041B6D3760F",
  "abi": [
    {
      "anonymous": false,
      "inputs": [
        {
          "indexed": true,
          "internalType": "address",
          "name": "owner",
          "type": "address"
        },
        {
          "indexed": true,
          "internalType": "address",
          "name": "approved",
          "type": "address"
        },
        {
          "indexed": true,
          "internalType": "uint256",
          "name": "tokenId",
          "type": "uint256"
        }
      ],
      "name": "Approval",
      "type": "event"
    },
    {
      "anonymous": false,
      "inputs": [
        {
          "indexed": true,
          "internalType": "address",
          "name": "owner",
          "type": "address"
        },
        {
          "indexed": true,
          "internalType": "address",
          "name": "operator",
          "type": "address"
        },
        {
          "indexed": false,
          "internalType": "bool",
          "name": "approved",
          "type": "bool"
        }
      ],
      "name": "ApprovalForAll",
      "type": "event"
    },
    {
      "anonymous": false,
      "inputs": [
        {
          "indexed": true,
          "internalType": "address",
          "name": "previousOwner",
          "type": "address"
        },
        {
          "indexed": true,
          "internalType": "address",
          "name": "newOwner",
          "type": "address"
        }
      ],
      "name": "OwnershipTransferred",
      "type": "event"
    },
    {
      "anonymous": false,
      "inputs": [
        {
          "indexed": true,
          "internalType": "address",
          "name": "from",
          "type": "address"
        },
        {
          "indexed": true,
          "internalType": "address",
          "name": "to",
          "type": "address"
        },
        {
          "indexed": true,
          "internalType": "uint256",
          "name": "tokenId",
          "type": "uint256"
        }
      ],
      "name": "Transfer",
      "type": "event"
    },
    {
      "inputs": [
        {
          "internalType": "uint256",
          "name": "",
          "type": "uint256"
        },
        {
          "internalType": "uint256",
          "name": "",
          "type": "uint256"
        }
      ],
      "name": "accessories",
      "outputs": [
        {
          "internalType": "address",
          "name": "contractAddress",
          "type": "address"
        },
        {
          "internalType": "uint256",
          "name": "tokenId",
          "type": "uint256"
        }
      ],
      "stateMutability": "view",
      "type": "function"
    },
    {
      "inputs": [
        {
          "internalType": "address",
          "name": "to",
          "type": "address"
        },
        {
          "internalType": "uint256",
          "name": "tokenId",
          "type": "uint256"
        }
      ],
      "name": "approve",
      "outputs": [],
      "stateMutability": "nonpayable",
      "type": "function"
    },
    {
      "inputs": [
        {
          "internalType": "uint256",
          "name": "",
          "type": "uint256"
        }
      ],
      "name": "backgrounds",
      "outputs": [
        {
          "internalType": "string",
          "name": "",
          "type": "string"
        }
      ],
      "stateMutability": "view",
      "type": "function"
    },
    {
      "inputs": [
        {
          "internalType": "address",
          "name": "owner",
          "type": "address"
        }
      ],
      "name": "balanceOf",
      "outputs": [
        {
          "internalType": "uint256",
          "name": "",
          "type": "uint256"
        }
      ],
      "stateMutability": "view",
      "type": "function"
    },
    {
      "inputs": [],
      "name": "contractName",
      "outputs": [
        {
          "internalType": "string",
          "name": "",
          "type": "string"
        }
      ],
      "stateMutability": "view",
      "type": "function"
    },
    {
      "inputs": [
        {
          "internalType": "uint256",
          "name": "tokenId",
          "type": "uint256"
        }
      ],
      "name": "dataURI",
      "outputs": [
        {
          "internalType": "string",
          "name": "",
          "type": "string"
        }
      ],
      "stateMutability": "view",
      "type": "function"
    },
    {
      "inputs": [
        {
          "internalType": "string",
          "name": "name",
          "type": "string"
        },
        {
          "internalType": "string",
          "name": "description",
          "type": "string"
        },
        {
          "internalType": "uint256",
          "name": "tokenId",
          "type": "uint256"
        }
      ],
      "name": "genericDataURI",
      "outputs": [
        {
          "internalType": "string",
          "name": "",
          "type": "string"
        }
      ],
      "stateMutability": "view",
      "type": "function"
    },
    {
      "inputs": [
        {
          "internalType": "uint256",
          "name": "tokenId",
          "type": "uint256"
        }
      ],
      "name": "getApproved",
      "outputs": [
        {
          "internalType": "address",
          "name": "",
          "type": "address"
        }
      ],
      "stateMutability": "view",
      "type": "function"
    },
    {
      "inputs": [
        {
          "internalType": "address",
          "name": "_owner",
          "type": "address"
        },
        {
          "internalType": "string",
          "name": "_name",
          "type": "string"
        },
        {
          "internalType": "string",
          "name": "_symbol",
          "type": "string"
        }
      ],
      "name": "initialize",
      "outputs": [],
      "stateMutability": "nonpayable",
      "type": "function"
    },
    {
      "inputs": [
        {
          "internalType": "address",
          "name": "owner",
          "type": "address"
        },
        {
          "internalType": "address",
          "name": "operator",
          "type": "address"
        }
      ],
      "name": "isApprovedForAll",
      "outputs": [
        {
          "internalType": "bool",
          "name": "",
          "type": "bool"
        }
      ],
      "stateMutability": "view",
      "type": "function"
    },
    {
      "inputs": [
        {
          "internalType": "string",
          "name": "name",
          "type": "string"
        },
        {
          "internalType": "bytes",
          "name": "seed",
          "type": "bytes"
        },
        {
          "internalType": "string[]",
          "name": "colors",
          "type": "string[]"
        },
        {
          "internalType": "string",
          "name": "bgColor",
          "type": "string"
        },
        {
          "internalType": "address",
          "name": "toAddress",
          "type": "address"
        }
      ],
      "name": "mintNFT",
      "outputs": [],
      "stateMutability": "nonpayable",
      "type": "function"
    },
    {
      "inputs": [],
      "name": "name",
      "outputs": [
        {
          "internalType": "string",
          "name": "",
          "type": "string"
        }
      ],
      "stateMutability": "view",
      "type": "function"
    },
    {
      "inputs": [
        {
          "internalType": "uint256",
          "name": "",
          "type": "uint256"
        }
      ],
      "name": "names",
      "outputs": [
        {
          "internalType": "string",
          "name": "",
          "type": "string"
        }
      ],
      "stateMutability": "view",
      "type": "function"
    },
    {
      "inputs": [],
      "name": "owner",
      "outputs": [
        {
          "internalType": "address",
          "name": "",
          "type": "address"
        }
      ],
      "stateMutability": "view",
      "type": "function"
    },
    {
      "inputs": [
        {
          "internalType": "uint256",
          "name": "tokenId",
          "type": "uint256"
        }
      ],
      "name": "ownerOf",
      "outputs": [
        {
          "internalType": "address",
          "name": "",
          "type": "address"
        }
      ],
      "stateMutability": "view",
      "type": "function"
    },
    {
      "inputs": [
        {
          "internalType": "uint256",
          "name": "",
          "type": "uint256"
        },
        {
          "internalType": "uint256",
          "name": "",
          "type": "uint256"
        }
      ],
      "name": "palettes",
      "outputs": [
        {
          "internalType": "string",
          "name": "",
          "type": "string"
        }
      ],
      "stateMutability": "view",
      "type": "function"
    },
    {
      "inputs": [
        {
          "internalType": "uint256",
          "name": "",
          "type": "uint256"
        }
      ],
      "name": "parts",
      "outputs": [
        {
          "internalType": "bytes",
          "name": "",
          "type": "bytes"
        }
      ],
      "stateMutability": "view",
      "type": "function"
    },
    {
      "inputs": [
        {
          "internalType": "uint256",
          "name": "tokenId",
          "type": "uint256"
        }
      ],
      "name": "removeAccessories",
      "outputs": [],
      "stateMutability": "nonpayable",
      "type": "function"
    },
    {
      "inputs": [],
      "name": "renounceOwnership",
      "outputs": [],
      "stateMutability": "nonpayable",
      "type": "function"
    },
    {
      "inputs": [
        {
          "internalType": "uint256",
          "name": "tokenId",
          "type": "uint256"
        }
      ],
      "name": "returnPalletes",
      "outputs": [
        {
          "internalType": "string[]",
          "name": "",
          "type": "string[]"
        }
      ],
      "stateMutability": "view",
      "type": "function"
    },
    {
      "inputs": [
        {
          "internalType": "uint256",
          "name": "tokenId",
          "type": "uint256"
        }
      ],
      "name": "returnParts",
      "outputs": [
        {
          "internalType": "bytes",
          "name": "",
          "type": "bytes"
        }
      ],
      "stateMutability": "view",
      "type": "function"
    },
    {
      "inputs": [
        {
          "internalType": "address",
          "name": "from",
          "type": "address"
        },
        {
          "internalType": "address",
          "name": "to",
          "type": "address"
        },
        {
          "internalType": "uint256",
          "name": "tokenId",
          "type": "uint256"
        }
      ],
      "name": "safeTransferFrom",
      "outputs": [],
      "stateMutability": "nonpayable",
      "type": "function"
    },
    {
      "inputs": [
        {
          "internalType": "address",
          "name": "from",
          "type": "address"
        },
        {
          "internalType": "address",
          "name": "to",
          "type": "address"
        },
        {
          "internalType": "uint256",
          "name": "tokenId",
          "type": "uint256"
        },
        {
          "internalType": "bytes",
          "name": "_data",
          "type": "bytes"
        }
      ],
      "name": "safeTransferFrom",
      "outputs": [],
      "stateMutability": "nonpayable",
      "type": "function"
    },
    {
      "inputs": [
        {
          "internalType": "uint256",
          "name": "tokenId",
          "type": "uint256"
        },
        {
          "internalType": "address",
          "name": "_accessoryAddress",
          "type": "address"
        },
        {
          "internalType": "uint256",
          "name": "_accessorieTokenId",
          "type": "uint256"
        }
      ],
      "name": "setAccessory",
      "outputs": [],
      "stateMutability": "nonpayable",
      "type": "function"
    },
    {
      "inputs": [
        {
          "internalType": "address",
          "name": "operator",
          "type": "address"
        },
        {
          "internalType": "bool",
          "name": "approved",
          "type": "bool"
        }
      ],
      "name": "setApprovalForAll",
      "outputs": [],
      "stateMutability": "nonpayable",
      "type": "function"
    },
    {
      "inputs": [
        {
          "internalType": "bytes4",
          "name": "_interfaceId",
          "type": "bytes4"
        }
      ],
      "name": "supportsInterface",
      "outputs": [
        {
          "internalType": "bool",
          "name": "",
          "type": "bool"
        }
      ],
      "stateMutability": "view",
      "type": "function"
    },
    {
      "inputs": [],
      "name": "symbol",
      "outputs": [
        {
          "internalType": "string",
          "name": "",
          "type": "string"
        }
      ],
      "stateMutability": "view",
      "type": "function"
    },
    {
      "inputs": [
        {
          "internalType": "uint256",
          "name": "tokenId",
          "type": "uint256"
        }
      ],
      "name": "tokenURI",
      "outputs": [
        {
          "internalType": "string",
          "name": "",
          "type": "string"
        }
      ],
      "stateMutability": "view",
      "type": "function"
    },
    {
      "inputs": [],
      "name": "totalSupply",
      "outputs": [
        {
          "internalType": "uint256",
          "name": "",
          "type": "uint256"
        }
      ],
      "stateMutability": "view",
      "type": "function"
    },
    {
      "inputs": [
        {
          "internalType": "address",
          "name": "from",
          "type": "address"
        },
        {
          "internalType": "address",
          "name": "to",
          "type": "address"
        },
        {
          "internalType": "uint256",
          "name": "tokenId",
          "type": "uint256"
        }
      ],
      "name": "transferFrom",
      "outputs": [],
      "stateMutability": "nonpayable",
      "type": "function"
    },
    {
      "inputs": [
        {
          "internalType": "address",
          "name": "newOwner",
          "type": "address"
        }
      ],
      "name": "transferOwnership",
      "outputs": [],
      "stateMutability": "nonpayable",
      "type": "function"
    }
  ],
  "transactionHash": "0x6e411d521c47f7a55ed56ab42bb1f8c4fd8c35d6f449eb137479e84ac897fc53",
  "args": [],
  "numDeployments": 1,
  "solcInputHash": "4986386578196915735b73f7c77681ae",
  "bytecode": "0x608060405234801561001057600080fd5b50613382806100206000396000f3fe608060405234801561001057600080fd5b50600436106101e55760003560e01c80636352211e1161010f578063b6bc3182116100a2578063c9eb466211610071578063c9eb466214610424578063e985e9c514610437578063f1dc193a14610473578063f2fde38b1461048657600080fd5b8063b6bc3182146103d8578063b88d4fde146103eb578063c2c00f4c146103fe578063c87b56dd1461041157600080fd5b80638da5cb5b116100de5780638da5cb5b1461039957806390657147146103aa57806395d89b41146103bd578063a22cb465146103c557600080fd5b80636352211e1461036357806370a0823114610376578063715018a61461038957806375d0c0dc1461039157600080fd5b806319586348116101875780634121ba1f116101565780634121ba1f1461031757806342842e0e1461032a5780634622ab031461033d5780635ac1e3bb1461035057600080fd5b8063195863481461029f5780631f05db79146102b257806323b872dd146102e4578063397fb1d4146102f757600080fd5b8063081812fc116101c3578063081812fc1461023a578063095ea7b3146102655780630d3636961461027a57806318160ddd1461028d57600080fd5b806301ffc9a7146101ea57806304bde4dd1461021257806306fdde0314610232575b600080fd5b6101fd6101f8366004612b69565b610499565b60405190151581526020015b60405180910390f35b610225610220366004612d82565b6104aa565b604051610209919061302f565b610225610544565b61024d610248366004612d82565b6105d6565b6040516001600160a01b039091168152602001610209565b610278610273366004612a75565b610670565b005b610278610288366004612bec565b6107a2565b60ce545b604051908152602001610209565b6102256102ad366004612d15565b610970565b6102c56102c0366004612dc2565b610ada565b604080516001600160a01b039093168352602083019190915201610209565b6102786102f236600461291f565b610b20565b61030a610305366004612d82565b610ba7565b6040516102099190612fcd565b610225610325366004612d82565b610c93565b61027861033836600461291f565b610d35565b61022561034b366004612d82565b610d50565b61022561035e366004612d82565b610d69565b61024d610371366004612d82565b610e49565b6102916103843660046128ac565b610ed4565b610278610f6e565b610225610fd4565b6097546001600160a01b031661024d565b6102786103b83660046129ff565b610fe1565b6102256110db565b6102786103d33660046129cc565b6110ea565b6102786103e6366004612d82565b6110f9565b6102786103f9366004612960565b6111e6565b61027861040c366004612d9b565b61126e565b61022561041f366004612d82565b611494565b610225610432366004612d82565b611504565b6101fd6104453660046128e6565b6001600160a01b039182166000908152606a6020908152604080832093909416825291909152205460ff1690565b610225610481366004612dc2565b61151d565b6102786104943660046128ac565b611555565b60006104a482611634565b92915050565b60cb60205260009081526040902080546104c39061323f565b80601f01602080910402602001604051908101604052809291908181526020018280546104ef9061323f565b801561053c5780601f106105115761010080835404028352916020019161053c565b820191906000526020600020905b81548152906001019060200180831161051f57829003601f168201915b505050505081565b6060606580546105539061323f565b80601f016020809104026020016040519081016040528092919081815260200182805461057f9061323f565b80156105cc5780601f106105a1576101008083540402835291602001916105cc565b820191906000526020600020905b8154815290600101906020018083116105af57829003601f168201915b5050505050905090565b6000818152606760205260408120546001600160a01b03166106545760405162461bcd60e51b815260206004820152602c60248201527f4552433732313a20617070726f76656420717565727920666f72206e6f6e657860448201526b34b9ba32b73a103a37b5b2b760a11b60648201526084015b60405180910390fd5b506000908152606960205260409020546001600160a01b031690565b600061067b82610e49565b9050806001600160a01b0316836001600160a01b031614156107055760405162461bcd60e51b815260206004820152602160248201527f4552433732313a20617070726f76616c20746f2063757272656e74206f776e6560448201527f7200000000000000000000000000000000000000000000000000000000000000606482015260840161064b565b336001600160a01b038216148061072157506107218133610445565b6107935760405162461bcd60e51b815260206004820152603860248201527f4552433732313a20617070726f76652063616c6c6572206973206e6f74206f7760448201527f6e6572206e6f7220617070726f76656420666f7220616c6c0000000000000000606482015260840161064b565b61079d83836116cf565b505050565b6097546001600160a01b031633146107fc5760405162461bcd60e51b815260206004820181905260248201527f4f776e61626c653a2063616c6c6572206973206e6f7420746865206f776e6572604482015260640161064b565b600060ce54600161080d91906131ab565b600081815260c960205260409020549091506101009061082e9086906131ab565b11156108a25760405162461bcd60e51b815260206004820152602160248201527f50616c65747465732063616e206f6e6c7920686f6c642032353620636f6c6f7260448201527f7300000000000000000000000000000000000000000000000000000000000000606482015260840161064b565b60005b848110156108ec576108da828787848181106108c3576108c36132f5565b90506020028101906108d5919061310b565b61173d565b806108e48161327a565b9150506108a5565b50600081815260cc60209081526040909120875161090c92890190612656565b50600081815260cb60209081526040909120845161092c92860190612656565b50600081815260ca602052604090206109469089896126da565b5060ce80549060006109578361327a565b91905055506109668282611766565b5050505050505050565b60606000604051806080016040528086815260200185815260200161099485611780565b815260200160cb600086815260200190815260200160002080546109b79061323f565b80601f01602080910402602001604051908101604052809291908181526020018280546109e39061323f565b8015610a305780601f10610a0557610100808354040283529160200191610a30565b820191906000526020600020905b815481529060010190602001808311610a1357829003601f168201915b50505050508152509050736B32d16E3758bE749ed444891aD8CF7b027E9dc66382d1fbb782610a5e866119f2565b6040518363ffffffff1660e01b8152600401610a7b929190613042565b60006040518083038186803b158015610a9357600080fd5b505af4158015610aa7573d6000803e3d6000fd5b505050506040513d6000823e601f3d908101601f19168201604052610acf9190810190612ce0565b9150505b9392505050565b60cd6020528160005260406000208181548110610af657600080fd5b6000918252602090912060029091020180546001909101546001600160a01b039091169250905082565b610b2a3382611ca7565b610b9c5760405162461bcd60e51b815260206004820152603160248201527f4552433732313a207472616e736665722063616c6c6572206973206e6f74206f60448201527f776e6572206e6f7220617070726f766564000000000000000000000000000000606482015260840161064b565b61079d838383611d9a565b606060c96000838152602001908152602001600020805480602002602001604051908101604052809291908181526020016000905b82821015610c88578382906000526020600020018054610bfb9061323f565b80601f0160208091040260200160405190810160405280929190818152602001828054610c279061323f565b8015610c745780601f10610c4957610100808354040283529160200191610c74565b820191906000526020600020905b815481529060010190602001808311610c5757829003601f168201915b505050505081526020019060010190610bdc565b505050509050919050565b600081815260cc60205260409020805460609190610cb09061323f565b80601f0160208091040260200160405190810160405280929190818152602001828054610cdc9061323f565b8015610d295780601f10610cfe57610100808354040283529160200191610d29565b820191906000526020600020905b815481529060010190602001808311610d0c57829003601f168201915b50505050509050919050565b61079d838383604051806020016040528060008152506111e6565b60ca60205260009081526040902080546104c39061323f565b600081815260ca6020526040812080546060929190610d879061323f565b80601f0160208091040260200160405190810160405280929190818152602001828054610db39061323f565b8015610e005780601f10610dd557610100808354040283529160200191610e00565b820191906000526020600020905b815481529060010190602001808311610de357829003601f168201915b50505050509050600060cf610e1485611f67565b604051602001610e25929190612ec7565b6040516020818303038152906040529050610e41828286610970565b949350505050565b6000818152606760205260408120546001600160a01b0316806104a45760405162461bcd60e51b815260206004820152602960248201527f4552433732313a206f776e657220717565727920666f72206e6f6e657869737460448201527f656e7420746f6b656e0000000000000000000000000000000000000000000000606482015260840161064b565b60006001600160a01b038216610f525760405162461bcd60e51b815260206004820152602a60248201527f4552433732313a2062616c616e636520717565727920666f7220746865207a6560448201527f726f206164647265737300000000000000000000000000000000000000000000606482015260840161064b565b506001600160a01b031660009081526068602052604090205490565b6097546001600160a01b03163314610fc85760405162461bcd60e51b815260206004820181905260248201527f4f776e61626c653a2063616c6c6572206973206e6f7420746865206f776e6572604482015260640161064b565b610fd26000612099565b565b60cf80546104c39061323f565b600054610100900460ff16610ffc5760005460ff1615611000565b303b155b6110725760405162461bcd60e51b815260206004820152602e60248201527f496e697469616c697a61626c653a20636f6e747261637420697320616c72656160448201527f647920696e697469616c697a6564000000000000000000000000000000000000606482015260840161064b565b600054610100900460ff16158015611094576000805461ffff19166101011790555b61109c6120eb565b6110a584611555565b6110af838361215f565b82516110c29060cf906020860190612656565b5080156110d5576000805461ff00191690555b50505050565b6060606680546105539061323f565b6110f53383836121f1565b5050565b6040516331a9108f60e11b81526004810182905233903090636352211e9060240160206040518083038186803b15801561113257600080fd5b505afa158015611146573d6000803e3d6000fd5b505050506040513d601f19601f8201168201806040525081019061116a91906128c9565b6001600160a01b0316146111cc5760405162461bcd60e51b8152602060048201526024808201527f466c6c6e63686e3a206d757374206265206f776e6572206f662074686973207460448201526337b5b2b760e11b606482015260840161064b565b600081815260cd602052604081206111e39161274e565b50565b6111f03383611ca7565b6112625760405162461bcd60e51b815260206004820152603160248201527f4552433732313a207472616e736665722063616c6c6572206973206e6f74206f60448201527f776e6572206e6f7220617070726f766564000000000000000000000000000000606482015260840161064b565b6110d5848484846122c0565b6040516331a9108f60e11b81526004810184905233903090636352211e9060240160206040518083038186803b1580156112a757600080fd5b505afa1580156112bb573d6000803e3d6000fd5b505050506040513d601f19601f820116820180604052508101906112df91906128c9565b6001600160a01b0316146113415760405162461bcd60e51b8152602060048201526024808201527f466c6c6e63686e3a206d757374206265206f776e6572206f662074686973207460448201526337b5b2b760e11b606482015260840161064b565b6040516331a9108f60e11b81526004810182905233906001600160a01b03841690636352211e9060240160206040518083038186803b15801561138357600080fd5b505afa158015611397573d6000803e3d6000fd5b505050506040513d601f19601f820116820180604052508101906113bb91906128c9565b6001600160a01b0316146114375760405162461bcd60e51b815260206004820152602960248201527f466c6c6e63686e3a206d757374206265206f776e6572206f662061636365737360448201527f6f727920746f6b656e0000000000000000000000000000000000000000000000606482015260840161064b565b600092835260cd6020908152604080852081518083019092526001600160a01b03948516825281830193845280546001808201835591875292909520905160029092020180546001600160a01b0319169190931617825551910155565b6000818152606760205260409020546060906001600160a01b03166114fb5760405162461bcd60e51b815260206004820152601f60248201527f55524920717565727920666f72206e6f6e6578697374656e7420746f6b656e00604482015260640161064b565b6104a482610d69565b60cc60205260009081526040902080546104c39061323f565b60c9602052816000526040600020818154811061153957600080fd5b906000526020600020016000915091505080546104c39061323f565b6097546001600160a01b031633146115af5760405162461bcd60e51b815260206004820181905260248201527f4f776e61626c653a2063616c6c6572206973206e6f7420746865206f776e6572604482015260640161064b565b6001600160a01b03811661162b5760405162461bcd60e51b815260206004820152602660248201527f4f776e61626c653a206e6577206f776e657220697320746865207a65726f206160448201527f6464726573730000000000000000000000000000000000000000000000000000606482015260840161064b565b6111e381612099565b60006001600160e01b031982167f80ac58cd00000000000000000000000000000000000000000000000000000000148061169757506001600160e01b031982167f5b5e139f00000000000000000000000000000000000000000000000000000000145b806104a457507f01ffc9a7000000000000000000000000000000000000000000000000000000006001600160e01b03198316146104a4565b600081815260696020526040902080546001600160a01b0319166001600160a01b038416908117909155819061170482610e49565b6001600160a01b03167f8c5be1e5ebec7d5bd14f71427d1e84f3dd0314c0f7b2291e5b200ac8c7c3b92560405160405180910390a45050565b600083815260c9602090815260408220805460018101825590835291206110d5910183836126da565b6110f582826040518060200160405280600081525061233e565b600081815260cd60205260408120546060919061179e9060016131ab565b67ffffffffffffffff8111156117b6576117b661330b565b6040519080825280602002602001820160405280156117e957816020015b60608152602001906001900390816117d45790505b50600084815260cc602052604090208054919250906118079061323f565b80601f01602080910402602001604051908101604052809291908181526020018280546118339061323f565b80156118805780601f1061185557610100808354040283529160200191611880565b820191906000526020600020905b81548152906001019060200180831161186357829003601f168201915b505050505081600081518110611898576118986132f5565b602002602001018190525060005b600084815260cd602052604090205460ff821610156119eb57600084815260cd60205260409020805460ff83169081106118e2576118e26132f5565b6000918252602080832060029092029091015486835260cd909152604090912080546001600160a01b0390921691634121ba1f919060ff851690811061192a5761192a6132f5565b9060005260206000209060020201600101546040518263ffffffff1660e01b815260040161195a91815260200190565b60006040518083038186803b15801561197257600080fd5b505afa158015611986573d6000803e3d6000fd5b505050506040513d6000823e601f3d908101601f191682016040526119ae9190810190612ba3565b826119ba8360016131c3565b60ff16815181106119cd576119cd6132f5565b602002602001018190525080806119e390613295565b9150506118a6565b5092915050565b600081815260cd602052604081205460609190611a109060016131ab565b67ffffffffffffffff811115611a2857611a2861330b565b604051908082528060200260200182016040528015611a5b57816020015b6060815260200190600190039081611a465790505b50905060c96000848152602001908152602001600020805480602002602001604051908101604052809291908181526020016000905b82821015611b3d578382906000526020600020018054611ab09061323f565b80601f0160208091040260200160405190810160405280929190818152602001828054611adc9061323f565b8015611b295780601f10611afe57610100808354040283529160200191611b29565b820191906000526020600020905b815481529060010190602001808311611b0c57829003601f168201915b505050505081526020019060010190611a91565b5050505081600081518110611b5457611b546132f5565b602002602001018190525060005b600084815260cd602052604090205460ff821610156119eb57600084815260cd60205260409020805460ff8316908110611b9e57611b9e6132f5565b6000918252602080832060029092029091015486835260cd909152604090912080546001600160a01b039092169163397fb1d4919060ff8516908110611be657611be66132f5565b9060005260206000209060020201600101546040518263ffffffff1660e01b8152600401611c1691815260200190565b60006040518083038186803b158015611c2e57600080fd5b505afa158015611c42573d6000803e3d6000fd5b505050506040513d6000823e601f3d908101601f19168201604052611c6a9190810190612aa1565b82611c768360016131c3565b60ff1681518110611c8957611c896132f5565b60200260200101819052508080611c9f90613295565b915050611b62565b6000818152606760205260408120546001600160a01b0316611d205760405162461bcd60e51b815260206004820152602c60248201527f4552433732313a206f70657261746f7220717565727920666f72206e6f6e657860448201526b34b9ba32b73a103a37b5b2b760a11b606482015260840161064b565b6000611d2b83610e49565b9050806001600160a01b0316846001600160a01b03161480611d665750836001600160a01b0316611d5b846105d6565b6001600160a01b0316145b80610e4157506001600160a01b038082166000908152606a602090815260408083209388168352929052205460ff16610e41565b826001600160a01b0316611dad82610e49565b6001600160a01b031614611e295760405162461bcd60e51b815260206004820152602560248201527f4552433732313a207472616e736665722066726f6d20696e636f72726563742060448201527f6f776e6572000000000000000000000000000000000000000000000000000000606482015260840161064b565b6001600160a01b038216611ea45760405162461bcd60e51b8152602060048201526024808201527f4552433732313a207472616e7366657220746f20746865207a65726f2061646460448201527f7265737300000000000000000000000000000000000000000000000000000000606482015260840161064b565b611eaf6000826116cf565b6001600160a01b0383166000908152606860205260408120805460019290611ed89084906131fc565b90915550506001600160a01b0382166000908152606860205260408120805460019290611f069084906131ab565b909155505060008181526067602052604080822080546001600160a01b0319166001600160a01b0386811691821790925591518493918716917fddf252ad1be2c89b69c2b068fc378daa952ba7f163c4a11628f55a4df523b3ef91a4505050565b606081611fa757505060408051808201909152600181527f3000000000000000000000000000000000000000000000000000000000000000602082015290565b8160005b8115611fd15780611fbb8161327a565b9150611fca9050600a836131e8565b9150611fab565b60008167ffffffffffffffff811115611fec57611fec61330b565b6040519080825280601f01601f191660200182016040528015612016576020820181803683370190505b5090505b8415610e415761202b6001836131fc565b9150612038600a866132b5565b6120439060306131ab565b60f81b818381518110612058576120586132f5565b60200101907effffffffffffffffffffffffffffffffffffffffffffffffffffffffffffff1916908160001a905350612092600a866131e8565b945061201a565b609780546001600160a01b038381166001600160a01b0319831681179093556040519116919082907f8be0079c531659141344cd1fd0a4f28419497f9722a3daafe3b4186f6b6457e090600090a35050565b600054610100900460ff166121565760405162461bcd60e51b815260206004820152602b60248201527f496e697469616c697a61626c653a20636f6e7472616374206973206e6f74206960448201526a6e697469616c697a696e6760a81b606482015260840161064b565b610fd233612099565b600054610100900460ff166121ca5760405162461bcd60e51b815260206004820152602b60248201527f496e697469616c697a61626c653a20636f6e7472616374206973206e6f74206960448201526a6e697469616c697a696e6760a81b606482015260840161064b565b81516121dd906065906020850190612656565b50805161079d906066906020840190612656565b816001600160a01b0316836001600160a01b031614156122535760405162461bcd60e51b815260206004820152601960248201527f4552433732313a20617070726f766520746f2063616c6c657200000000000000604482015260640161064b565b6001600160a01b038381166000818152606a6020908152604080832094871680845294825291829020805460ff191686151590811790915591519182527f17307eab39ab6107e8899845ad3d59bd9653f200f220920489ca2b5937696c31910160405180910390a3505050565b6122cb848484611d9a565b6122d7848484846123bc565b6110d55760405162461bcd60e51b815260206004820152603260248201527f4552433732313a207472616e7366657220746f206e6f6e20455243373231526560448201527131b2b4bb32b91034b6b83632b6b2b73a32b960711b606482015260840161064b565b6123488383612514565b61235560008484846123bc565b61079d5760405162461bcd60e51b815260206004820152603260248201527f4552433732313a207472616e7366657220746f206e6f6e20455243373231526560448201527131b2b4bb32b91034b6b83632b6b2b73a32b960711b606482015260840161064b565b60006001600160a01b0384163b1561250957604051630a85bd0160e11b81526001600160a01b0385169063150b7a0290612400903390899088908890600401612f91565b602060405180830381600087803b15801561241a57600080fd5b505af192505050801561244a575060408051601f3d908101601f1916820190925261244791810190612b86565b60015b6124ef573d808015612478576040519150601f19603f3d011682016040523d82523d6000602084013e61247d565b606091505b5080516124e75760405162461bcd60e51b815260206004820152603260248201527f4552433732313a207472616e7366657220746f206e6f6e20455243373231526560448201527131b2b4bb32b91034b6b83632b6b2b73a32b960711b606482015260840161064b565b805181602001fd5b6001600160e01b031916630a85bd0160e11b149050610e41565b506001949350505050565b6001600160a01b03821661256a5760405162461bcd60e51b815260206004820181905260248201527f4552433732313a206d696e7420746f20746865207a65726f2061646472657373604482015260640161064b565b6000818152606760205260409020546001600160a01b0316156125cf5760405162461bcd60e51b815260206004820152601c60248201527f4552433732313a20746f6b656e20616c7265616479206d696e74656400000000604482015260640161064b565b6001600160a01b03821660009081526068602052604081208054600192906125f89084906131ab565b909155505060008181526067602052604080822080546001600160a01b0319166001600160a01b03861690811790915590518392907fddf252ad1be2c89b69c2b068fc378daa952ba7f163c4a11628f55a4df523b3ef908290a45050565b8280546126629061323f565b90600052602060002090601f01602090048101928261268457600085556126ca565b82601f1061269d57805160ff19168380011785556126ca565b828001600101855582156126ca579182015b828111156126ca5782518255916020019190600101906126af565b506126d692915061276f565b5090565b8280546126e69061323f565b90600052602060002090601f01602090048101928261270857600085556126ca565b82601f106127215782800160ff198235161785556126ca565b828001600101855582156126ca579182015b828111156126ca578235825591602001919060010190612733565b50805460008255600202906000526020600020908101906111e39190612784565b5b808211156126d65760008155600101612770565b5b808211156126d65780546001600160a01b031916815560006001820155600201612785565b60006127bd6127b884613183565b613152565b90508281528383830111156127d157600080fd5b610ad3836020830184613213565b80356127ea81613321565b919050565b60008083601f84011261280157600080fd5b50813567ffffffffffffffff81111561281957600080fd5b6020830191508360208260051b850101111561283457600080fd5b9250929050565b600082601f83011261284c57600080fd5b813561285a6127b882613183565b81815284602083860101111561286f57600080fd5b816020850160208301376000918101602001919091529392505050565b600082601f83011261289d57600080fd5b610ad3838351602085016127aa565b6000602082840312156128be57600080fd5b8135610ad381613321565b6000602082840312156128db57600080fd5b8151610ad381613321565b600080604083850312156128f957600080fd5b823561290481613321565b9150602083013561291481613321565b809150509250929050565b60008060006060848603121561293457600080fd5b833561293f81613321565b9250602084013561294f81613321565b929592945050506040919091013590565b6000806000806080858703121561297657600080fd5b843561298181613321565b9350602085013561299181613321565b925060408501359150606085013567ffffffffffffffff8111156129b457600080fd5b6129c08782880161283b565b91505092959194509250565b600080604083850312156129df57600080fd5b82356129ea81613321565b91506020830135801515811461291457600080fd5b600080600060608486031215612a1457600080fd5b8335612a1f81613321565b9250602084013567ffffffffffffffff80821115612a3c57600080fd5b612a488783880161283b565b93506040860135915080821115612a5e57600080fd5b50612a6b8682870161283b565b9150509250925092565b60008060408385031215612a8857600080fd5b8235612a9381613321565b946020939093013593505050565b60006020808385031215612ab457600080fd5b825167ffffffffffffffff80821115612acc57600080fd5b818501915085601f830112612ae057600080fd5b815181811115612af257612af261330b565b8060051b612b01858201613152565b8281528581019085870183870188018b1015612b1c57600080fd5b60009350835b85811015612b5957815187811115612b38578586fd5b612b468d8b838c010161288c565b8552509288019290880190600101612b22565b50909a9950505050505050505050565b600060208284031215612b7b57600080fd5b8135610ad381613336565b600060208284031215612b9857600080fd5b8151610ad381613336565b600060208284031215612bb557600080fd5b815167ffffffffffffffff811115612bcc57600080fd5b8201601f81018413612bdd57600080fd5b610e41848251602084016127aa565b600080600080600080600060a0888a031215612c0757600080fd5b873567ffffffffffffffff80821115612c1f57600080fd5b818a0191508a601f830112612c3357600080fd5b813581811115612c4257600080fd5b8b6020828501011115612c5457600080fd5b602092830199509750908901359080821115612c6f57600080fd5b612c7b8b838c0161283b565b965060408a0135915080821115612c9157600080fd5b612c9d8b838c016127ef565b909650945060608a0135915080821115612cb657600080fd5b50612cc38a828b0161283b565b925050612cd2608089016127df565b905092959891949750929550565b600060208284031215612cf257600080fd5b815167ffffffffffffffff811115612d0957600080fd5b610e418482850161288c565b600080600060608486031215612d2a57600080fd5b833567ffffffffffffffff80821115612d4257600080fd5b612d4e8783880161283b565b94506020860135915080821115612d6457600080fd5b50612d718682870161283b565b925050604084013590509250925092565b600060208284031215612d9457600080fd5b5035919050565b600080600060608486031215612db057600080fd5b83359250602084013561294f81613321565b60008060408385031215612dd557600080fd5b50508035926020909101359150565b60008282518085526020808601955060058183821b8501018287016000805b86811015612e7057601f1988850381018c5283518051808752908801908887019080891b88018a01865b82811015612e5957858a8303018452612e47828651612e7f565b948c0194938c01939150600101612e2d565b509e8a019e97505050938701935050600101612e03565b50919998505050505050505050565b60008151808452612e97816020860160208601613213565b601f01601f19169290920160200192915050565b60008151612ebd818560208601613213565b9290920192915050565b600080845481600182811c915080831680612ee357607f831692505b6020808410821415612f0357634e487b7160e01b86526022600452602486fd5b818015612f175760018114612f2857612f55565b60ff19861689528489019650612f55565b60008b81526020902060005b86811015612f4d5781548b820152908501908301612f34565b505084890196505b505050505050610acf612f8b827f2023000000000000000000000000000000000000000000000000000000000000815260020190565b85612eab565b60006001600160a01b03808716835280861660208401525083604083015260806060830152612fc36080830184612e7f565b9695505050505050565b6000602080830181845280855180835260408601915060408160051b870101925083870160005b8281101561302257603f19888603018452613010858351612e7f565b94509285019290850190600101612ff4565b5092979650505050505050565b602081526000610ad36020830184612e7f565b60408152600083516080604084015261305e60c0840182612e7f565b9050602080860151603f198086850301606087015261307d8483612e7f565b60408901518782038301608089015280518083529195508401925083850190600581901b8601850160005b828110156130d657601f198883030184526130c4828751612e7f565b958701959387019391506001016130a8565b5060608b01519650838982030160a08a01526130f28188612e7f565b965050505050508382038185015250610acf8185612de4565b6000808335601e1984360301811261312257600080fd5b83018035915067ffffffffffffffff82111561313d57600080fd5b60200191503681900382131561283457600080fd5b604051601f8201601f1916810167ffffffffffffffff8111828210171561317b5761317b61330b565b604052919050565b600067ffffffffffffffff82111561319d5761319d61330b565b50601f01601f191660200190565b600082198211156131be576131be6132c9565b500190565b600060ff821660ff84168060ff038211156131e0576131e06132c9565b019392505050565b6000826131f7576131f76132df565b500490565b60008282101561320e5761320e6132c9565b500390565b60005b8381101561322e578181015183820152602001613216565b838111156110d55750506000910152565b600181811c9082168061325357607f821691505b6020821081141561327457634e487b7160e01b600052602260045260246000fd5b50919050565b600060001982141561328e5761328e6132c9565b5060010190565b600060ff821660ff8114156132ac576132ac6132c9565b60010192915050565b6000826132c4576132c46132df565b500690565b634e487b7160e01b600052601160045260246000fd5b634e487b7160e01b600052601260045260246000fd5b634e487b7160e01b600052603260045260246000fd5b634e487b7160e01b600052604160045260246000fd5b6001600160a01b03811681146111e357600080fd5b6001600160e01b0319811681146111e357600080fdfea2646970667358221220bb82d8891c2021821f15e5fe2b891260b83686c2b5f976aced63e4d6ce4a92eb64736f6c63430008060033",
  "deployedBytecode": "0x608060405234801561001057600080fd5b50600436106101e55760003560e01c80636352211e1161010f578063b6bc3182116100a2578063c9eb466211610071578063c9eb466214610424578063e985e9c514610437578063f1dc193a14610473578063f2fde38b1461048657600080fd5b8063b6bc3182146103d8578063b88d4fde146103eb578063c2c00f4c146103fe578063c87b56dd1461041157600080fd5b80638da5cb5b116100de5780638da5cb5b1461039957806390657147146103aa57806395d89b41146103bd578063a22cb465146103c557600080fd5b80636352211e1461036357806370a0823114610376578063715018a61461038957806375d0c0dc1461039157600080fd5b806319586348116101875780634121ba1f116101565780634121ba1f1461031757806342842e0e1461032a5780634622ab031461033d5780635ac1e3bb1461035057600080fd5b8063195863481461029f5780631f05db79146102b257806323b872dd146102e4578063397fb1d4146102f757600080fd5b8063081812fc116101c3578063081812fc1461023a578063095ea7b3146102655780630d3636961461027a57806318160ddd1461028d57600080fd5b806301ffc9a7146101ea57806304bde4dd1461021257806306fdde0314610232575b600080fd5b6101fd6101f8366004612b69565b610499565b60405190151581526020015b60405180910390f35b610225610220366004612d82565b6104aa565b604051610209919061302f565b610225610544565b61024d610248366004612d82565b6105d6565b6040516001600160a01b039091168152602001610209565b610278610273366004612a75565b610670565b005b610278610288366004612bec565b6107a2565b60ce545b604051908152602001610209565b6102256102ad366004612d15565b610970565b6102c56102c0366004612dc2565b610ada565b604080516001600160a01b039093168352602083019190915201610209565b6102786102f236600461291f565b610b20565b61030a610305366004612d82565b610ba7565b6040516102099190612fcd565b610225610325366004612d82565b610c93565b61027861033836600461291f565b610d35565b61022561034b366004612d82565b610d50565b61022561035e366004612d82565b610d69565b61024d610371366004612d82565b610e49565b6102916103843660046128ac565b610ed4565b610278610f6e565b610225610fd4565b6097546001600160a01b031661024d565b6102786103b83660046129ff565b610fe1565b6102256110db565b6102786103d33660046129cc565b6110ea565b6102786103e6366004612d82565b6110f9565b6102786103f9366004612960565b6111e6565b61027861040c366004612d9b565b61126e565b61022561041f366004612d82565b611494565b610225610432366004612d82565b611504565b6101fd6104453660046128e6565b6001600160a01b039182166000908152606a6020908152604080832093909416825291909152205460ff1690565b610225610481366004612dc2565b61151d565b6102786104943660046128ac565b611555565b60006104a482611634565b92915050565b60cb60205260009081526040902080546104c39061323f565b80601f01602080910402602001604051908101604052809291908181526020018280546104ef9061323f565b801561053c5780601f106105115761010080835404028352916020019161053c565b820191906000526020600020905b81548152906001019060200180831161051f57829003601f168201915b505050505081565b6060606580546105539061323f565b80601f016020809104026020016040519081016040528092919081815260200182805461057f9061323f565b80156105cc5780601f106105a1576101008083540402835291602001916105cc565b820191906000526020600020905b8154815290600101906020018083116105af57829003601f168201915b5050505050905090565b6000818152606760205260408120546001600160a01b03166106545760405162461bcd60e51b815260206004820152602c60248201527f4552433732313a20617070726f76656420717565727920666f72206e6f6e657860448201526b34b9ba32b73a103a37b5b2b760a11b60648201526084015b60405180910390fd5b506000908152606960205260409020546001600160a01b031690565b600061067b82610e49565b9050806001600160a01b0316836001600160a01b031614156107055760405162461bcd60e51b815260206004820152602160248201527f4552433732313a20617070726f76616c20746f2063757272656e74206f776e6560448201527f7200000000000000000000000000000000000000000000000000000000000000606482015260840161064b565b336001600160a01b038216148061072157506107218133610445565b6107935760405162461bcd60e51b815260206004820152603860248201527f4552433732313a20617070726f76652063616c6c6572206973206e6f74206f7760448201527f6e6572206e6f7220617070726f76656420666f7220616c6c0000000000000000606482015260840161064b565b61079d83836116cf565b505050565b6097546001600160a01b031633146107fc5760405162461bcd60e51b815260206004820181905260248201527f4f776e61626c653a2063616c6c6572206973206e6f7420746865206f776e6572604482015260640161064b565b600060ce54600161080d91906131ab565b600081815260c960205260409020549091506101009061082e9086906131ab565b11156108a25760405162461bcd60e51b815260206004820152602160248201527f50616c65747465732063616e206f6e6c7920686f6c642032353620636f6c6f7260448201527f7300000000000000000000000000000000000000000000000000000000000000606482015260840161064b565b60005b848110156108ec576108da828787848181106108c3576108c36132f5565b90506020028101906108d5919061310b565b61173d565b806108e48161327a565b9150506108a5565b50600081815260cc60209081526040909120875161090c92890190612656565b50600081815260cb60209081526040909120845161092c92860190612656565b50600081815260ca602052604090206109469089896126da565b5060ce80549060006109578361327a565b91905055506109668282611766565b5050505050505050565b60606000604051806080016040528086815260200185815260200161099485611780565b815260200160cb600086815260200190815260200160002080546109b79061323f565b80601f01602080910402602001604051908101604052809291908181526020018280546109e39061323f565b8015610a305780601f10610a0557610100808354040283529160200191610a30565b820191906000526020600020905b815481529060010190602001808311610a1357829003601f168201915b5050505050815250905073__$388d9648e60900c4fa1f8dd42cac8ac1fe$__6382d1fbb782610a5e866119f2565b6040518363ffffffff1660e01b8152600401610a7b929190613042565b60006040518083038186803b158015610a9357600080fd5b505af4158015610aa7573d6000803e3d6000fd5b505050506040513d6000823e601f3d908101601f19168201604052610acf9190810190612ce0565b9150505b9392505050565b60cd6020528160005260406000208181548110610af657600080fd5b6000918252602090912060029091020180546001909101546001600160a01b039091169250905082565b610b2a3382611ca7565b610b9c5760405162461bcd60e51b815260206004820152603160248201527f4552433732313a207472616e736665722063616c6c6572206973206e6f74206f60448201527f776e6572206e6f7220617070726f766564000000000000000000000000000000606482015260840161064b565b61079d838383611d9a565b606060c96000838152602001908152602001600020805480602002602001604051908101604052809291908181526020016000905b82821015610c88578382906000526020600020018054610bfb9061323f565b80601f0160208091040260200160405190810160405280929190818152602001828054610c279061323f565b8015610c745780601f10610c4957610100808354040283529160200191610c74565b820191906000526020600020905b815481529060010190602001808311610c5757829003601f168201915b505050505081526020019060010190610bdc565b505050509050919050565b600081815260cc60205260409020805460609190610cb09061323f565b80601f0160208091040260200160405190810160405280929190818152602001828054610cdc9061323f565b8015610d295780601f10610cfe57610100808354040283529160200191610d29565b820191906000526020600020905b815481529060010190602001808311610d0c57829003601f168201915b50505050509050919050565b61079d838383604051806020016040528060008152506111e6565b60ca60205260009081526040902080546104c39061323f565b600081815260ca6020526040812080546060929190610d879061323f565b80601f0160208091040260200160405190810160405280929190818152602001828054610db39061323f565b8015610e005780601f10610dd557610100808354040283529160200191610e00565b820191906000526020600020905b815481529060010190602001808311610de357829003601f168201915b50505050509050600060cf610e1485611f67565b604051602001610e25929190612ec7565b6040516020818303038152906040529050610e41828286610970565b949350505050565b6000818152606760205260408120546001600160a01b0316806104a45760405162461bcd60e51b815260206004820152602960248201527f4552433732313a206f776e657220717565727920666f72206e6f6e657869737460448201527f656e7420746f6b656e0000000000000000000000000000000000000000000000606482015260840161064b565b60006001600160a01b038216610f525760405162461bcd60e51b815260206004820152602a60248201527f4552433732313a2062616c616e636520717565727920666f7220746865207a6560448201527f726f206164647265737300000000000000000000000000000000000000000000606482015260840161064b565b506001600160a01b031660009081526068602052604090205490565b6097546001600160a01b03163314610fc85760405162461bcd60e51b815260206004820181905260248201527f4f776e61626c653a2063616c6c6572206973206e6f7420746865206f776e6572604482015260640161064b565b610fd26000612099565b565b60cf80546104c39061323f565b600054610100900460ff16610ffc5760005460ff1615611000565b303b155b6110725760405162461bcd60e51b815260206004820152602e60248201527f496e697469616c697a61626c653a20636f6e747261637420697320616c72656160448201527f647920696e697469616c697a6564000000000000000000000000000000000000606482015260840161064b565b600054610100900460ff16158015611094576000805461ffff19166101011790555b61109c6120eb565b6110a584611555565b6110af838361215f565b82516110c29060cf906020860190612656565b5080156110d5576000805461ff00191690555b50505050565b6060606680546105539061323f565b6110f53383836121f1565b5050565b6040516331a9108f60e11b81526004810182905233903090636352211e9060240160206040518083038186803b15801561113257600080fd5b505afa158015611146573d6000803e3d6000fd5b505050506040513d601f19601f8201168201806040525081019061116a91906128c9565b6001600160a01b0316146111cc5760405162461bcd60e51b8152602060048201526024808201527f466c6c6e63686e3a206d757374206265206f776e6572206f662074686973207460448201526337b5b2b760e11b606482015260840161064b565b600081815260cd602052604081206111e39161274e565b50565b6111f03383611ca7565b6112625760405162461bcd60e51b815260206004820152603160248201527f4552433732313a207472616e736665722063616c6c6572206973206e6f74206f60448201527f776e6572206e6f7220617070726f766564000000000000000000000000000000606482015260840161064b565b6110d5848484846122c0565b6040516331a9108f60e11b81526004810184905233903090636352211e9060240160206040518083038186803b1580156112a757600080fd5b505afa1580156112bb573d6000803e3d6000fd5b505050506040513d601f19601f820116820180604052508101906112df91906128c9565b6001600160a01b0316146113415760405162461bcd60e51b8152602060048201526024808201527f466c6c6e63686e3a206d757374206265206f776e6572206f662074686973207460448201526337b5b2b760e11b606482015260840161064b565b6040516331a9108f60e11b81526004810182905233906001600160a01b03841690636352211e9060240160206040518083038186803b15801561138357600080fd5b505afa158015611397573d6000803e3d6000fd5b505050506040513d601f19601f820116820180604052508101906113bb91906128c9565b6001600160a01b0316146114375760405162461bcd60e51b815260206004820152602960248201527f466c6c6e63686e3a206d757374206265206f776e6572206f662061636365737360448201527f6f727920746f6b656e0000000000000000000000000000000000000000000000606482015260840161064b565b600092835260cd6020908152604080852081518083019092526001600160a01b03948516825281830193845280546001808201835591875292909520905160029092020180546001600160a01b0319169190931617825551910155565b6000818152606760205260409020546060906001600160a01b03166114fb5760405162461bcd60e51b815260206004820152601f60248201527f55524920717565727920666f72206e6f6e6578697374656e7420746f6b656e00604482015260640161064b565b6104a482610d69565b60cc60205260009081526040902080546104c39061323f565b60c9602052816000526040600020818154811061153957600080fd5b906000526020600020016000915091505080546104c39061323f565b6097546001600160a01b031633146115af5760405162461bcd60e51b815260206004820181905260248201527f4f776e61626c653a2063616c6c6572206973206e6f7420746865206f776e6572604482015260640161064b565b6001600160a01b03811661162b5760405162461bcd60e51b815260206004820152602660248201527f4f776e61626c653a206e6577206f776e657220697320746865207a65726f206160448201527f6464726573730000000000000000000000000000000000000000000000000000606482015260840161064b565b6111e381612099565b60006001600160e01b031982167f80ac58cd00000000000000000000000000000000000000000000000000000000148061169757506001600160e01b031982167f5b5e139f00000000000000000000000000000000000000000000000000000000145b806104a457507f01ffc9a7000000000000000000000000000000000000000000000000000000006001600160e01b03198316146104a4565b600081815260696020526040902080546001600160a01b0319166001600160a01b038416908117909155819061170482610e49565b6001600160a01b03167f8c5be1e5ebec7d5bd14f71427d1e84f3dd0314c0f7b2291e5b200ac8c7c3b92560405160405180910390a45050565b600083815260c9602090815260408220805460018101825590835291206110d5910183836126da565b6110f582826040518060200160405280600081525061233e565b600081815260cd60205260408120546060919061179e9060016131ab565b67ffffffffffffffff8111156117b6576117b661330b565b6040519080825280602002602001820160405280156117e957816020015b60608152602001906001900390816117d45790505b50600084815260cc602052604090208054919250906118079061323f565b80601f01602080910402602001604051908101604052809291908181526020018280546118339061323f565b80156118805780601f1061185557610100808354040283529160200191611880565b820191906000526020600020905b81548152906001019060200180831161186357829003601f168201915b505050505081600081518110611898576118986132f5565b602002602001018190525060005b600084815260cd602052604090205460ff821610156119eb57600084815260cd60205260409020805460ff83169081106118e2576118e26132f5565b6000918252602080832060029092029091015486835260cd909152604090912080546001600160a01b0390921691634121ba1f919060ff851690811061192a5761192a6132f5565b9060005260206000209060020201600101546040518263ffffffff1660e01b815260040161195a91815260200190565b60006040518083038186803b15801561197257600080fd5b505afa158015611986573d6000803e3d6000fd5b505050506040513d6000823e601f3d908101601f191682016040526119ae9190810190612ba3565b826119ba8360016131c3565b60ff16815181106119cd576119cd6132f5565b602002602001018190525080806119e390613295565b9150506118a6565b5092915050565b600081815260cd602052604081205460609190611a109060016131ab565b67ffffffffffffffff811115611a2857611a2861330b565b604051908082528060200260200182016040528015611a5b57816020015b6060815260200190600190039081611a465790505b50905060c96000848152602001908152602001600020805480602002602001604051908101604052809291908181526020016000905b82821015611b3d578382906000526020600020018054611ab09061323f565b80601f0160208091040260200160405190810160405280929190818152602001828054611adc9061323f565b8015611b295780601f10611afe57610100808354040283529160200191611b29565b820191906000526020600020905b815481529060010190602001808311611b0c57829003601f168201915b505050505081526020019060010190611a91565b5050505081600081518110611b5457611b546132f5565b602002602001018190525060005b600084815260cd602052604090205460ff821610156119eb57600084815260cd60205260409020805460ff8316908110611b9e57611b9e6132f5565b6000918252602080832060029092029091015486835260cd909152604090912080546001600160a01b039092169163397fb1d4919060ff8516908110611be657611be66132f5565b9060005260206000209060020201600101546040518263ffffffff1660e01b8152600401611c1691815260200190565b60006040518083038186803b158015611c2e57600080fd5b505afa158015611c42573d6000803e3d6000fd5b505050506040513d6000823e601f3d908101601f19168201604052611c6a9190810190612aa1565b82611c768360016131c3565b60ff1681518110611c8957611c896132f5565b60200260200101819052508080611c9f90613295565b915050611b62565b6000818152606760205260408120546001600160a01b0316611d205760405162461bcd60e51b815260206004820152602c60248201527f4552433732313a206f70657261746f7220717565727920666f72206e6f6e657860448201526b34b9ba32b73a103a37b5b2b760a11b606482015260840161064b565b6000611d2b83610e49565b9050806001600160a01b0316846001600160a01b03161480611d665750836001600160a01b0316611d5b846105d6565b6001600160a01b0316145b80610e4157506001600160a01b038082166000908152606a602090815260408083209388168352929052205460ff16610e41565b826001600160a01b0316611dad82610e49565b6001600160a01b031614611e295760405162461bcd60e51b815260206004820152602560248201527f4552433732313a207472616e736665722066726f6d20696e636f72726563742060448201527f6f776e6572000000000000000000000000000000000000000000000000000000606482015260840161064b565b6001600160a01b038216611ea45760405162461bcd60e51b8152602060048201526024808201527f4552433732313a207472616e7366657220746f20746865207a65726f2061646460448201527f7265737300000000000000000000000000000000000000000000000000000000606482015260840161064b565b611eaf6000826116cf565b6001600160a01b0383166000908152606860205260408120805460019290611ed89084906131fc565b90915550506001600160a01b0382166000908152606860205260408120805460019290611f069084906131ab565b909155505060008181526067602052604080822080546001600160a01b0319166001600160a01b0386811691821790925591518493918716917fddf252ad1be2c89b69c2b068fc378daa952ba7f163c4a11628f55a4df523b3ef91a4505050565b606081611fa757505060408051808201909152600181527f3000000000000000000000000000000000000000000000000000000000000000602082015290565b8160005b8115611fd15780611fbb8161327a565b9150611fca9050600a836131e8565b9150611fab565b60008167ffffffffffffffff811115611fec57611fec61330b565b6040519080825280601f01601f191660200182016040528015612016576020820181803683370190505b5090505b8415610e415761202b6001836131fc565b9150612038600a866132b5565b6120439060306131ab565b60f81b818381518110612058576120586132f5565b60200101907effffffffffffffffffffffffffffffffffffffffffffffffffffffffffffff1916908160001a905350612092600a866131e8565b945061201a565b609780546001600160a01b038381166001600160a01b0319831681179093556040519116919082907f8be0079c531659141344cd1fd0a4f28419497f9722a3daafe3b4186f6b6457e090600090a35050565b600054610100900460ff166121565760405162461bcd60e51b815260206004820152602b60248201527f496e697469616c697a61626c653a20636f6e7472616374206973206e6f74206960448201526a6e697469616c697a696e6760a81b606482015260840161064b565b610fd233612099565b600054610100900460ff166121ca5760405162461bcd60e51b815260206004820152602b60248201527f496e697469616c697a61626c653a20636f6e7472616374206973206e6f74206960448201526a6e697469616c697a696e6760a81b606482015260840161064b565b81516121dd906065906020850190612656565b50805161079d906066906020840190612656565b816001600160a01b0316836001600160a01b031614156122535760405162461bcd60e51b815260206004820152601960248201527f4552433732313a20617070726f766520746f2063616c6c657200000000000000604482015260640161064b565b6001600160a01b038381166000818152606a6020908152604080832094871680845294825291829020805460ff191686151590811790915591519182527f17307eab39ab6107e8899845ad3d59bd9653f200f220920489ca2b5937696c31910160405180910390a3505050565b6122cb848484611d9a565b6122d7848484846123bc565b6110d55760405162461bcd60e51b815260206004820152603260248201527f4552433732313a207472616e7366657220746f206e6f6e20455243373231526560448201527131b2b4bb32b91034b6b83632b6b2b73a32b960711b606482015260840161064b565b6123488383612514565b61235560008484846123bc565b61079d5760405162461bcd60e51b815260206004820152603260248201527f4552433732313a207472616e7366657220746f206e6f6e20455243373231526560448201527131b2b4bb32b91034b6b83632b6b2b73a32b960711b606482015260840161064b565b60006001600160a01b0384163b1561250957604051630a85bd0160e11b81526001600160a01b0385169063150b7a0290612400903390899088908890600401612f91565b602060405180830381600087803b15801561241a57600080fd5b505af192505050801561244a575060408051601f3d908101601f1916820190925261244791810190612b86565b60015b6124ef573d808015612478576040519150601f19603f3d011682016040523d82523d6000602084013e61247d565b606091505b5080516124e75760405162461bcd60e51b815260206004820152603260248201527f4552433732313a207472616e7366657220746f206e6f6e20455243373231526560448201527131b2b4bb32b91034b6b83632b6b2b73a32b960711b606482015260840161064b565b805181602001fd5b6001600160e01b031916630a85bd0160e11b149050610e41565b506001949350505050565b6001600160a01b03821661256a5760405162461bcd60e51b815260206004820181905260248201527f4552433732313a206d696e7420746f20746865207a65726f2061646472657373604482015260640161064b565b6000818152606760205260409020546001600160a01b0316156125cf5760405162461bcd60e51b815260206004820152601c60248201527f4552433732313a20746f6b656e20616c7265616479206d696e74656400000000604482015260640161064b565b6001600160a01b03821660009081526068602052604081208054600192906125f89084906131ab565b909155505060008181526067602052604080822080546001600160a01b0319166001600160a01b03861690811790915590518392907fddf252ad1be2c89b69c2b068fc378daa952ba7f163c4a11628f55a4df523b3ef908290a45050565b8280546126629061323f565b90600052602060002090601f01602090048101928261268457600085556126ca565b82601f1061269d57805160ff19168380011785556126ca565b828001600101855582156126ca579182015b828111156126ca5782518255916020019190600101906126af565b506126d692915061276f565b5090565b8280546126e69061323f565b90600052602060002090601f01602090048101928261270857600085556126ca565b82601f106127215782800160ff198235161785556126ca565b828001600101855582156126ca579182015b828111156126ca578235825591602001919060010190612733565b50805460008255600202906000526020600020908101906111e39190612784565b5b808211156126d65760008155600101612770565b5b808211156126d65780546001600160a01b031916815560006001820155600201612785565b60006127bd6127b884613183565b613152565b90508281528383830111156127d157600080fd5b610ad3836020830184613213565b80356127ea81613321565b919050565b60008083601f84011261280157600080fd5b50813567ffffffffffffffff81111561281957600080fd5b6020830191508360208260051b850101111561283457600080fd5b9250929050565b600082601f83011261284c57600080fd5b813561285a6127b882613183565b81815284602083860101111561286f57600080fd5b816020850160208301376000918101602001919091529392505050565b600082601f83011261289d57600080fd5b610ad3838351602085016127aa565b6000602082840312156128be57600080fd5b8135610ad381613321565b6000602082840312156128db57600080fd5b8151610ad381613321565b600080604083850312156128f957600080fd5b823561290481613321565b9150602083013561291481613321565b809150509250929050565b60008060006060848603121561293457600080fd5b833561293f81613321565b9250602084013561294f81613321565b929592945050506040919091013590565b6000806000806080858703121561297657600080fd5b843561298181613321565b9350602085013561299181613321565b925060408501359150606085013567ffffffffffffffff8111156129b457600080fd5b6129c08782880161283b565b91505092959194509250565b600080604083850312156129df57600080fd5b82356129ea81613321565b91506020830135801515811461291457600080fd5b600080600060608486031215612a1457600080fd5b8335612a1f81613321565b9250602084013567ffffffffffffffff80821115612a3c57600080fd5b612a488783880161283b565b93506040860135915080821115612a5e57600080fd5b50612a6b8682870161283b565b9150509250925092565b60008060408385031215612a8857600080fd5b8235612a9381613321565b946020939093013593505050565b60006020808385031215612ab457600080fd5b825167ffffffffffffffff80821115612acc57600080fd5b818501915085601f830112612ae057600080fd5b815181811115612af257612af261330b565b8060051b612b01858201613152565b8281528581019085870183870188018b1015612b1c57600080fd5b60009350835b85811015612b5957815187811115612b38578586fd5b612b468d8b838c010161288c565b8552509288019290880190600101612b22565b50909a9950505050505050505050565b600060208284031215612b7b57600080fd5b8135610ad381613336565b600060208284031215612b9857600080fd5b8151610ad381613336565b600060208284031215612bb557600080fd5b815167ffffffffffffffff811115612bcc57600080fd5b8201601f81018413612bdd57600080fd5b610e41848251602084016127aa565b600080600080600080600060a0888a031215612c0757600080fd5b873567ffffffffffffffff80821115612c1f57600080fd5b818a0191508a601f830112612c3357600080fd5b813581811115612c4257600080fd5b8b6020828501011115612c5457600080fd5b602092830199509750908901359080821115612c6f57600080fd5b612c7b8b838c0161283b565b965060408a0135915080821115612c9157600080fd5b612c9d8b838c016127ef565b909650945060608a0135915080821115612cb657600080fd5b50612cc38a828b0161283b565b925050612cd2608089016127df565b905092959891949750929550565b600060208284031215612cf257600080fd5b815167ffffffffffffffff811115612d0957600080fd5b610e418482850161288c565b600080600060608486031215612d2a57600080fd5b833567ffffffffffffffff80821115612d4257600080fd5b612d4e8783880161283b565b94506020860135915080821115612d6457600080fd5b50612d718682870161283b565b925050604084013590509250925092565b600060208284031215612d9457600080fd5b5035919050565b600080600060608486031215612db057600080fd5b83359250602084013561294f81613321565b60008060408385031215612dd557600080fd5b50508035926020909101359150565b60008282518085526020808601955060058183821b8501018287016000805b86811015612e7057601f1988850381018c5283518051808752908801908887019080891b88018a01865b82811015612e5957858a8303018452612e47828651612e7f565b948c0194938c01939150600101612e2d565b509e8a019e97505050938701935050600101612e03565b50919998505050505050505050565b60008151808452612e97816020860160208601613213565b601f01601f19169290920160200192915050565b60008151612ebd818560208601613213565b9290920192915050565b600080845481600182811c915080831680612ee357607f831692505b6020808410821415612f0357634e487b7160e01b86526022600452602486fd5b818015612f175760018114612f2857612f55565b60ff19861689528489019650612f55565b60008b81526020902060005b86811015612f4d5781548b820152908501908301612f34565b505084890196505b505050505050610acf612f8b827f2023000000000000000000000000000000000000000000000000000000000000815260020190565b85612eab565b60006001600160a01b03808716835280861660208401525083604083015260806060830152612fc36080830184612e7f565b9695505050505050565b6000602080830181845280855180835260408601915060408160051b870101925083870160005b8281101561302257603f19888603018452613010858351612e7f565b94509285019290850190600101612ff4565b5092979650505050505050565b602081526000610ad36020830184612e7f565b60408152600083516080604084015261305e60c0840182612e7f565b9050602080860151603f198086850301606087015261307d8483612e7f565b60408901518782038301608089015280518083529195508401925083850190600581901b8601850160005b828110156130d657601f198883030184526130c4828751612e7f565b958701959387019391506001016130a8565b5060608b01519650838982030160a08a01526130f28188612e7f565b965050505050508382038185015250610acf8185612de4565b6000808335601e1984360301811261312257600080fd5b83018035915067ffffffffffffffff82111561313d57600080fd5b60200191503681900382131561283457600080fd5b604051601f8201601f1916810167ffffffffffffffff8111828210171561317b5761317b61330b565b604052919050565b600067ffffffffffffffff82111561319d5761319d61330b565b50601f01601f191660200190565b600082198211156131be576131be6132c9565b500190565b600060ff821660ff84168060ff038211156131e0576131e06132c9565b019392505050565b6000826131f7576131f76132df565b500490565b60008282101561320e5761320e6132c9565b500390565b60005b8381101561322e578181015183820152602001613216565b838111156110d55750506000910152565b600181811c9082168061325357607f821691505b6020821081141561327457634e487b7160e01b600052602260045260246000fd5b50919050565b600060001982141561328e5761328e6132c9565b5060010190565b600060ff821660ff8114156132ac576132ac6132c9565b60010192915050565b6000826132c4576132c46132df565b500690565b634e487b7160e01b600052601160045260246000fd5b634e487b7160e01b600052601260045260246000fd5b634e487b7160e01b600052603260045260246000fd5b634e487b7160e01b600052604160045260246000fd5b6001600160a01b03811681146111e357600080fd5b6001600160e01b0319811681146111e357600080fdfea2646970667358221220bb82d8891c2021821f15e5fe2b891260b83686c2b5f976aced63e4d6ce4a92eb64736f6c63430008060033",
  "libraries": {
    "NFTDescriptor": "0x6B32d16E3758bE749ed444891aD8CF7b027E9dc6"
  },
  "devdoc": {
    "kind": "dev",
    "methods": {
      "approve(address,uint256)": {
        "details": "See {IERC721-approve}."
      },
      "balanceOf(address)": {
        "details": "See {IERC721-balanceOf}."
      },
      "getApproved(uint256)": {
        "details": "See {IERC721-getApproved}."
      },
      "isApprovedForAll(address,address)": {
        "details": "See {IERC721-isApprovedForAll}."
      },
      "name()": {
        "details": "See {IERC721Metadata-name}."
      },
      "owner()": {
        "details": "Returns the address of the current owner."
      },
      "ownerOf(uint256)": {
        "details": "See {IERC721-ownerOf}."
      },
      "renounceOwnership()": {
        "details": "Leaves the contract without owner. It will not be possible to call `onlyOwner` functions anymore. Can only be called by the current owner. NOTE: Renouncing ownership will leave the contract without an owner, thereby removing any functionality that is only available to the owner."
      },
      "safeTransferFrom(address,address,uint256)": {
        "details": "See {IERC721-safeTransferFrom}."
      },
      "safeTransferFrom(address,address,uint256,bytes)": {
        "details": "See {IERC721-safeTransferFrom}."
      },
      "setApprovalForAll(address,bool)": {
        "details": "See {IERC721-setApprovalForAll}."
      },
      "symbol()": {
        "details": "See {IERC721Metadata-symbol}."
      },
      "tokenURI(uint256)": {
        "details": "See {IERC721Metadata-tokenURI}."
      },
      "transferFrom(address,address,uint256)": {
        "details": "See {IERC721-transferFrom}."
      },
      "transferOwnership(address)": {
        "details": "Transfers ownership of the contract to a new account (`newOwner`). Can only be called by the current owner."
      }
    },
    "version": 1
  },
  "userdoc": {
    "kind": "user",
    "methods": {
      "dataURI(uint256)": {
        "notice": "Given a token ID and seed, construct a base64 encoded data URI for an official Nouns DAO noun."
      },
      "genericDataURI(string,string,uint256)": {
        "notice": "Given a name, description, and seed, construct a base64 encoded data URI."
      }
    },
    "version": 1
  },
  "storageLayout": {
    "storage": [
      {
        "astId": 130,
        "contract": "contracts/FllnchnMold.sol:FllnchnMold",
        "label": "_initialized",
        "offset": 0,
        "slot": "0",
        "type": "t_bool"
      },
      {
        "astId": 133,
        "contract": "contracts/FllnchnMold.sol:FllnchnMold",
        "label": "_initializing",
        "offset": 1,
        "slot": "0",
        "type": "t_bool"
      },
      {
        "astId": 1533,
        "contract": "contracts/FllnchnMold.sol:FllnchnMold",
        "label": "__gap",
        "offset": 0,
        "slot": "1",
        "type": "t_array(t_uint256)50_storage"
      },
      {
        "astId": 1780,
        "contract": "contracts/FllnchnMold.sol:FllnchnMold",
        "label": "__gap",
        "offset": 0,
        "slot": "51",
        "type": "t_array(t_uint256)50_storage"
      },
      {
        "astId": 226,
        "contract": "contracts/FllnchnMold.sol:FllnchnMold",
        "label": "_name",
        "offset": 0,
        "slot": "101",
        "type": "t_string_storage"
      },
      {
        "astId": 228,
        "contract": "contracts/FllnchnMold.sol:FllnchnMold",
        "label": "_symbol",
        "offset": 0,
        "slot": "102",
        "type": "t_string_storage"
      },
      {
        "astId": 232,
        "contract": "contracts/FllnchnMold.sol:FllnchnMold",
        "label": "_owners",
        "offset": 0,
        "slot": "103",
        "type": "t_mapping(t_uint256,t_address)"
      },
      {
        "astId": 236,
        "contract": "contracts/FllnchnMold.sol:FllnchnMold",
        "label": "_balances",
        "offset": 0,
        "slot": "104",
        "type": "t_mapping(t_address,t_uint256)"
      },
      {
        "astId": 240,
        "contract": "contracts/FllnchnMold.sol:FllnchnMold",
        "label": "_tokenApprovals",
        "offset": 0,
        "slot": "105",
        "type": "t_mapping(t_uint256,t_address)"
      },
      {
        "astId": 246,
        "contract": "contracts/FllnchnMold.sol:FllnchnMold",
        "label": "_operatorApprovals",
        "offset": 0,
        "slot": "106",
        "type": "t_mapping(t_address,t_mapping(t_address,t_bool))"
      },
      {
        "astId": 1087,
        "contract": "contracts/FllnchnMold.sol:FllnchnMold",
        "label": "__gap",
        "offset": 0,
        "slot": "107",
        "type": "t_array(t_uint256)44_storage"
      },
      {
        "astId": 10,
        "contract": "contracts/FllnchnMold.sol:FllnchnMold",
        "label": "_owner",
        "offset": 0,
        "slot": "151",
        "type": "t_address"
      },
      {
        "astId": 122,
        "contract": "contracts/FllnchnMold.sol:FllnchnMold",
        "label": "__gap",
        "offset": 0,
        "slot": "152",
        "type": "t_array(t_uint256)49_storage"
      },
      {
        "astId": 2389,
        "contract": "contracts/FllnchnMold.sol:FllnchnMold",
        "label": "palettes",
        "offset": 0,
        "slot": "201",
        "type": "t_mapping(t_uint256,t_array(t_string_storage)dyn_storage)"
      },
      {
        "astId": 2393,
        "contract": "contracts/FllnchnMold.sol:FllnchnMold",
        "label": "names",
        "offset": 0,
        "slot": "202",
        "type": "t_mapping(t_uint256,t_string_storage)"
      },
      {
        "astId": 2397,
        "contract": "contracts/FllnchnMold.sol:FllnchnMold",
        "label": "backgrounds",
        "offset": 0,
        "slot": "203",
        "type": "t_mapping(t_uint256,t_string_storage)"
      },
      {
        "astId": 2401,
        "contract": "contracts/FllnchnMold.sol:FllnchnMold",
        "label": "parts",
        "offset": 0,
        "slot": "204",
        "type": "t_mapping(t_uint256,t_bytes_storage)"
      },
      {
        "astId": 2407,
        "contract": "contracts/FllnchnMold.sol:FllnchnMold",
        "label": "accessories",
        "offset": 0,
        "slot": "205",
        "type": "t_mapping(t_uint256,t_array(t_struct(Accessory)2384_storage)dyn_storage)"
      },
      {
        "astId": 2409,
        "contract": "contracts/FllnchnMold.sol:FllnchnMold",
        "label": "_totalSupply",
        "offset": 0,
        "slot": "206",
        "type": "t_uint256"
      },
      {
        "astId": 2411,
        "contract": "contracts/FllnchnMold.sol:FllnchnMold",
        "label": "contractName",
        "offset": 0,
        "slot": "207",
        "type": "t_string_storage"
      }
    ],
    "types": {
      "t_address": {
        "encoding": "inplace",
        "label": "address",
        "numberOfBytes": "20"
      },
      "t_array(t_string_storage)dyn_storage": {
        "base": "t_string_storage",
        "encoding": "dynamic_array",
        "label": "string[]",
        "numberOfBytes": "32"
      },
      "t_array(t_struct(Accessory)2384_storage)dyn_storage": {
        "base": "t_struct(Accessory)2384_storage",
        "encoding": "dynamic_array",
        "label": "struct FllnchnMold.Accessory[]",
        "numberOfBytes": "32"
      },
      "t_array(t_uint256)44_storage": {
        "base": "t_uint256",
        "encoding": "inplace",
        "label": "uint256[44]",
        "numberOfBytes": "1408"
      },
      "t_array(t_uint256)49_storage": {
        "base": "t_uint256",
        "encoding": "inplace",
        "label": "uint256[49]",
        "numberOfBytes": "1568"
      },
      "t_array(t_uint256)50_storage": {
        "base": "t_uint256",
        "encoding": "inplace",
        "label": "uint256[50]",
        "numberOfBytes": "1600"
      },
      "t_bool": {
        "encoding": "inplace",
        "label": "bool",
        "numberOfBytes": "1"
      },
      "t_bytes_storage": {
        "encoding": "bytes",
        "label": "bytes",
        "numberOfBytes": "32"
      },
      "t_mapping(t_address,t_bool)": {
        "encoding": "mapping",
        "key": "t_address",
        "label": "mapping(address => bool)",
        "numberOfBytes": "32",
        "value": "t_bool"
      },
      "t_mapping(t_address,t_mapping(t_address,t_bool))": {
        "encoding": "mapping",
        "key": "t_address",
        "label": "mapping(address => mapping(address => bool))",
        "numberOfBytes": "32",
        "value": "t_mapping(t_address,t_bool)"
      },
      "t_mapping(t_address,t_uint256)": {
        "encoding": "mapping",
        "key": "t_address",
        "label": "mapping(address => uint256)",
        "numberOfBytes": "32",
        "value": "t_uint256"
      },
      "t_mapping(t_uint256,t_address)": {
        "encoding": "mapping",
        "key": "t_uint256",
        "label": "mapping(uint256 => address)",
        "numberOfBytes": "32",
        "value": "t_address"
      },
      "t_mapping(t_uint256,t_array(t_string_storage)dyn_storage)": {
        "encoding": "mapping",
        "key": "t_uint256",
        "label": "mapping(uint256 => string[])",
        "numberOfBytes": "32",
        "value": "t_array(t_string_storage)dyn_storage"
      },
      "t_mapping(t_uint256,t_array(t_struct(Accessory)2384_storage)dyn_storage)": {
        "encoding": "mapping",
        "key": "t_uint256",
        "label": "mapping(uint256 => struct FllnchnMold.Accessory[])",
        "numberOfBytes": "32",
        "value": "t_array(t_struct(Accessory)2384_storage)dyn_storage"
      },
      "t_mapping(t_uint256,t_bytes_storage)": {
        "encoding": "mapping",
        "key": "t_uint256",
        "label": "mapping(uint256 => bytes)",
        "numberOfBytes": "32",
        "value": "t_bytes_storage"
      },
      "t_mapping(t_uint256,t_string_storage)": {
        "encoding": "mapping",
        "key": "t_uint256",
        "label": "mapping(uint256 => string)",
        "numberOfBytes": "32",
        "value": "t_string_storage"
      },
      "t_string_storage": {
        "encoding": "bytes",
        "label": "string",
        "numberOfBytes": "32"
      },
      "t_struct(Accessory)2384_storage": {
        "encoding": "inplace",
        "label": "struct FllnchnMold.Accessory",
        "members": [
          {
            "astId": 2381,
            "contract": "contracts/FllnchnMold.sol:FllnchnMold",
            "label": "contractAddress",
            "offset": 0,
            "slot": "0",
            "type": "t_address"
          },
          {
            "astId": 2383,
            "contract": "contracts/FllnchnMold.sol:FllnchnMold",
            "label": "tokenId",
            "offset": 0,
            "slot": "1",
            "type": "t_uint256"
          }
        ],
        "numberOfBytes": "64"
      },
      "t_uint256": {
        "encoding": "inplace",
        "label": "uint256",
        "numberOfBytes": "32"
      }
    }
  }
}